:0400000006EF00F017
:10000800F7EFFEF0FDECFCF04FECFEF020ECFDF01D
:1000180085ECFDF0C4ECFDF026EF00F0100E446E08
:100028002DEC00F090ECFEF02C0E456E7AECFEF014
:10003800A90E466E7AECFEF0465045247AECFEF0A6
:1000480012EF00F0E5ECFEF028EF00F0432EFED7AB
:100058001200FF0E436E2AEC00F0442EFAD712006D
:020000040001F9
:10F9FA00AB8EAC98AC94AC8A6596670EAF6E948C5D
:10FA0A001200536EDE500DECFDF0532EFBD71200A0
:10FA1A009EA8FED7AD6E1200556E553816ECFDF055
:10FA2A0055500F0B546E0A0E5460070F260F5424BC
:10FA3A000DECFDF01200978A97849698969A120018
:10FA4A008D888D9A0F0124850001290EC26E000E41
:10FA5A00C16EF60EC06E12008D988D8A0F01258F29
:10FA6A0000011D0EC26E000EC16EF60EC06E1200AF
:10FA7A00C43AF00EC416C3380F0EC314C4241200BD
:10FA8A00C282C2B2FED712003C2EFED70F0E3C6EC7
:10FA9A0012003A6E3A3A0F0E3A143B6EF00E3A16CC
:10FAAA0058ECFDF01200000E3A063B5AFDE2120035
:10FABA003D6E7D0E4EECFDF03D2EFBD7120025EC7F
:10FACA00FDF0010E5DECFDF045ECFDF0120031ECAD
:10FADA00FDF0010E5DECFDF045ECFDF012006CEC62
:10FAEA00FDF0C3CF41F0C4CF40F04050415064EC28
:10FAFA00FDF0C3CF3FF0C4CF3EF03E503F5012005E
:10FB0A009590959212004C6E140E4D6E4C508C804E
:10FB1A00AEECFDF08C904C50FA08AEECFDF0FA0E0B
:10FB2A00AEECFDF04D2E8BEFFDF012004C6E140E74
:10FB3A004D6E4C508C82AEECFDF08C924C50FA0813
:10FB4A00AEECFDF0FA0EAEECFDF04D2E9EEFFDF0A0
:10FB5A0012004B6E0A0EB5ECFDF04B2EFBD71200CD
:10FB6A00496E493A0F0E49144A6EF00E4916BFEC17
:10FB7A00FDF01200000E49064A5AFDE21200000E7C
:10FB8A00266E296E276E2A6E1200D89026322732E8
:10FB9A00286E2726000E2622D8901200D8902932E5
:10FBAA002A322B6E2A26000E2922D8901200D880DB
:10FBBA00D894D8982F502D5E2E50D8A02E3E2C5E69
:10FBCA001200329030AEEBEFFDF03280D89032B0B6
:10FBDA00D88030323132D89032B0D8803032313297
:10FBEA0032901200000E336E080E396E3906D89024
:10FBFA003632353236C02DF035C02CF038C02FF0F1
:10FC0A0037C02EF0DCECFDF02CBE48EFFEF0070EFC
:10FC1A0039622CEFFEF0060E39622FEFFEF0050E68
:10FC2A00396232EFFEF0040E396235EFFEF0030E50
:10FC3A00396238EFFEF0020E39623BEFFEF0010E38
:10FC4A0039623EEFFEF0000E396241EFFEF0338E6C
:10FC5A0044EFFEF0338C44EFFEF0338A44EFFEF0BB
:10FC6A00338844EFFEF0338644EFFEF0338444EFEA
:10FC7A00FEF0338244EFFEF0338044EFFEF02CC0F6
:10FC8A0035F02DC036F0000E3962FBEFFDF033502F
:10FC9A00340212008A6AC00E936E280ECFECFEF070
:10FCAA00300E9EECFEF00A0ED6ECFEF0280E9EEC0C
:10FCBA00FEF00A0ED6ECFEF0280E9EECFEF00A0EBE
:10FCCA00D6ECFEF00F0E9EECFEF00A0ED6ECFEF01D
:10FCDA00010E9EECFEF0020ECFECFEF0060E9EEC3C
:10FCEA00FEF00A0ED6ECFEF01200556E55387FEC87
:10FCFA00FEF055500F0B516E0A0E5160070F260F7A
:10FD0A005124ACECFEF01200A80E9EECFEF00A0E96
:10FD1A00D6ECFEF01200010E9EECFEF0020ECFECC5
:10FD2A00FEF01200526EDE50ACECFEF0522EFBD703
:10FD3A001200516E51380F0B8A6E8A98BDECFEF094
:10FD4A0051500F0B8A6E8A98BDECFEF01200516E6C
:10FD5A0051380F0B8A6E8A88BDECFEF051500F0B9A
:10FD6A008A6E8A88BDECFEF00A0ED6ECFEF012000E
:10FD7A000000000000000000000000000000000079
:10FD8A008A8A000000000000000000000000000055
:10FD9A008A9A1200506EFA0ED6ECFEF0502EFBD75D
:10FDAA0012004E6E4E3A0F0E4E144F6EF00E4E1655
:10FDBA00E0ECFEF01200000E4E064F5AFDE2120071
:10FDCA009A6A916A820ED56E220E036E070E046E2F
:10FDDA00066EB00E056E076E000E246E256EF28A50
:10FDEA00F28E120008C00CF009C00DF00AC00EF025
:10FDFA000BC00FF0100E026EF9ECFFF090ECFEF063
:10FE0A00F2A41100912A74ECFDF03EC02CF03FC020
:10FE1A002DF004C02EF005C02FF0DCECFDF02CC054
:10FE2A0008F02DC009F008C01CF009C01DF040C040
:10FE3A002CF041C02DF006C02EF007C02FF0DCECEC
:10FE4A00FDF02CC00AF02DC00BF00AC01EF00BC04A
:10FE5A001FF01CC030F01DC031F0E6ECFDF030C0E0
:10FE6A001CF031C01DF01EC030F01FC031F0E6ECAE
:10FE7A00FDF030C01EF031C01FF01C507AECFEF0CD
:10FE8A001D507AECFEF01E507AECFEF01F507AEC10
:10FE9A00FEF01DC015F01CC014F01FC017F01EC0E4
:10FEAA0016F008C02CF009C02DF00CC02EF00DC0C1
:10FEBA002FF0DCECFDF02CC010F02DC011F010C0BA
:10FECA0020F011C021F00AC02CF00BC02DF00EC09A
:10FEDA002EF00FC02FF0DCECFDF02CC012F02DC07C
:10FEEA0013F012C022F013C023F020C030F021C05A
:10FEFA0031F0E6ECFDF030C020F031C021F022C034
:10FF0A0030F023C031F0E6ECFDF030C022F031C011
:10FF1A0023F0D8902150152620501426D89023502B
:10FF2A0017262250162620507AECFEF021507AEC41
:10FF3A00FEF022507AECFEF023507AECFEF089ECC7
:10FF4A00FEF014AEB7EFFFF015C02DF014C02CF080
:10FF5A00000E2E6E010E2F6EDCECFDF02C1C186EBE
:10FF6A002D1C196E14BEBEEFFFF014C018F015C098
:10FF7A0019F016AECFEFFFF017C02DF016C02CF017
:10FF8A00000E2E6E010E2F6EDCECFDF02C1C1A6E8C
:10FF9A002D1C1B6E16BED6EFFFF016C01AF017C046
:10FFAA001BF018507AECFEF019507AECFEF01A5059
:10FFBA007AECFEF01B507AECFEF018C035F019C04E
:10FFCA0036F024C037F025C038F0180E346EF7EC3E
:10FFDA00FDF0F4507AECFEF003509BECFDF0F29445
:10FFEA001100012EFED71200FF0E016EF6ECFFF093
:06FFFA00022EFAD71200EE
:020000040030CA
:0700000015137F00B98B917D
:06000800FFC0FFE0FF4015
:00000001FF
