:0400000006EF00F017
:1000080064EFFFF0C7ECFDF0BFECFEF0EAECFDF0AA
:1000180080ECFEF013ECFEF012EF00F055ECFFF070
:0400280014EF00F0E1
:020000040001F9
:10FB8E00AB8EAC98AC94AC8A6596670EAF6E948CC7
:10FB9E0012003D6EDE50D7ECFDF03D2EFBD712006D
:10FBAE009EA8FED7AD6E12003F6E3F38E0ECFDF022
:10FBBE003F500F0B3E6E0A0E3E60070F260F3E247F
:10FBCE00D7ECFDF01200978A97849698969A1200B9
:10FBDE008D888D9A0F0124850001290EC26E000EAC
:10FBEE00C16EF60EC06E12008D988D8A0F01258F94
:10FBFE0000011D0EC26E000EC16EF60EC06E12001A
:10FC0E00C43AF00EC416C3380F0EC314C424120027
:10FC1E00C282C2B2FED71200000E1E6E216E1F6E81
:10FC2E00226E1200D8901E321F32206E1F26000E3A
:10FC3E001E22D8901200D89021322232236E222614
:10FC4E00000E2122D8901200D880D894D898275030
:10FC5E00255E2650D8A0263E245E12002A9028AE9D
:10FC6E003BEFFEF0289E2A80D89028322932D89079
:10FC7E00283229322AB0288E2A902D2EFED70F0E2A
:10FC8E002D6E12002B6E2B3A0F0E2B142C6EF00EC7
:10FC9E002B1653ECFEF01200000E2B062C5AFDE232
:10FCAE0012002E6E7D0E49ECFEF02E2EFBD71200AA
:10FCBE00EFECFDF0010E58ECFEF00FECFEF0120032
:10FCCE00FBECFDF0010E58ECFEF00FECFEF0120016
:10FCDE0067ECFEF0C3CF32F0C4CF31F0315032506A
:10FCEE005FECFEF0C3CF30F0C4CF2FF02F5030506A
:10FCFE001200959095921200366E140E376E365095
:10FD0E008C80A9ECFEF08C903650FA08A9ECFEF02F
:10FD1E00FA0EA9ECFEF0372E86EFFEF01200366ECC
:10FD2E00140E376E36508C82A9ECFEF08C92365043
:10FD3E00FA08A9ECFEF0FA0EA9ECFEF0372E99EFB8
:10FD4E00FEF01200356E0A0EB0ECFEF0352EFBD72B
:10FD5E001200336E333A0F0E3314346EF00E331628
:10FD6E00BAECFEF01200000E3306345AFDE2120019
:10FD7E008A6AC00E936E280E3FECFFF0300E0EEC2A
:10FD8E00FFF00A0E46ECFFF0280E0EECFFF00A0E06
:10FD9E0046ECFFF0280E0EECFFF00A0E46ECFFF0DC
:10FDAE000F0E0EECFFF00A0E46ECFFF0010E0EECFD
:10FDBE00FFF0020E3FECFFF0060E0EECFFF00A0E07
:10FDCE0046ECFFF012003F6E3F38EFECFEF03F5076
:10FDDE000F0B3B6E0A0E3B60070F260F3B241CECED
:10FDEE00FFF01200A80E0EECFFF00A0E46ECFFF02C
:10FDFE001200010E0EECFFF0020E3FECFFF01200AF
:10FE0E003C6EDE501CECFFF03C2EFBD712003B6E1E
:10FE1E003B380F0B8A6E8A982DECFFF03B500F0B80
:10FE2E008A6E8A982DECFFF012003B6E3B380F0B5A
:10FE3E008A6E8A882DECFFF03B500F0B8A6E8A88F3
:10FE4E002DECFFF00A0E46ECFFF012000000000051
:10FE5E000000000000000000000000008A8A000080
:10FE6E000000000000000000000000008A9A12004E
:10FE7E003A6EFA0E46ECFFF03A2EFBD71200386EB1
:10FE8E00383A0F0E3814396EF00E381650ECFFF06B
:10FE9E001200000E3806395AFDE212009A6A916A73
:10FEAE00870ED56E220E036E070E046E066EB00E12
:10FEBE00056E076EF28AF28E120008C00CF009C0B1
:10FECE000DF00AC00EF00BC00FF0100E026EF9EC22
:10FEDE00FFF000ECFFF0F2A41100912A6FECFEF09F
:10FEEE002FC024F030C025F004C026F005C027F046
:10FEFE002BECFEF024C008F025C009F008C016F067
:10FF0E0009C017F031C024F032C025F006C026F02B
:10FF1E0007C027F02BECFEF024C00AF025C00BF032
:10FF2E000AC018F00BC019F00850EAECFEF00950A8
:10FF3E00EAECFEF00A50EAECFEF00B50EAECFEF0B2
:10FF4E0016C028F017C029F035ECFEF028C016F0C8
:10FF5E0029C017F018C028F019C029F035ECFEF0B2
:10FF6E0028C018F029C019F01650EAECFEF0175010
:10FF7E00EAECFEF01850EAECFEF01950EAECFEF056
:10FF8E00F9ECFEF008C024F009C025F00CC026F0F4
:10FF9E000DC027F02BECFEF024C010F025C011F0A0
:10FFAE001050EAECFEF01150EAECFEF00AC024F01C
:10FFBE000BC025F00EC026F00FC027F02BECFEF084
:10FFCE0024C012F025C013F01250EAECFEF01350CC
:10FFDE00EAECFEF0035096ECFEF0F2941100012EC6
:10FFEE00FED71200FF0E016EF6ECFFF0022EFAD7CE
:02FFFE001200EF
:020000040030CA
:0700000015137F00B98B917D
:06000800FFC0FFE0FF4015
:00000001FF
