:1000000002EF00F0AAECFDF06AECFFF089ECFDF0E5
:1000100011ECFEF0BB0EBEECFDF01FEF00F0F8ECB3
:10002000FDF0220E14ECFEF0220E27ECFEF0AA0EDC
:10003000BEECFDF0AA0EBEECFDF00FEF00F0E0EC20
:10004000FEF0F5ECFEF021EF00F0382EFED71200A6
:0E005000FF0E386E25EC00F0392EFAD71200A4
:020000040001F9
:10FB1200978A97849698969A12008D888D9A0F01EB
:10FB220024850001290EC26E000EC16EF60EC06E53
:10FB320012008D988D8A0F01258F00011D0EC26E55
:10FB4200000EC16EF60EC06E1200C282C2B2FED7A5
:10FB52001200AB8EAC98AC94AC8A6596670EAF6E11
:10FB6200948C12003A6EDE50BAECFDF03A2EFBD7BE
:10FB720012009EA8FED7AD6E12003C6E3C38C3EC5C
:10FB8200FDF03C500F0B3B6E0A0E3B60070F260F39
:10FB92003B24BAECFDF01200272EFED70F0E276E83
:10FBA2001200256E253A0F0E2514266EF00E25162C
:10FBB200DCECFDF01200000E2506265AFDE21200D2
:10FBC200286E7D0ED2ECFDF0282EFBD712008EECB3
:10FBD200FDF0010EE1ECFDF0A6ECFDF012009AEC56
:10FBE200FDF0010EE1ECFDF0A6ECFDF01200F0ECF0
:10FBF200FDF0C3CF2CF0C4CF2BF02B50BEECFDF0A8
:10FC02002C50BEECFDF0E8ECFDF0C3CF2AF0C4CFDF
:10FC120029F02950BEECFDF02A50BEECFDF0120096
:10FC2200959095921200306E140E316E30508C8089
:10FC320058ECFEF08C903050FA0858ECFEF0FA0EB8
:10FC420058ECFEF0312E17EFFEF01200306E140E5B
:10FC5200316E30508C8258ECFEF08C923050FA08A3
:10FC620058ECFEF0FA0E58ECFEF0312E2AEFFEF0C0
:10FC72001200140E316E17508C8258ECFEF08C92EA
:10FC82001750FA0858ECFEF0FA0E58ECFEF0165037
:10FC92008C8058ECFEF08C901650FA0858ECFEF06E
:10FCA200FA0E58ECFEF0312E3CEFFEF012002F6EF1
:10FCB2000A0E5FECFEF02F2EFBD712002D6E2D3AAE
:10FCC2000F0E2D142E6EF00E2D1669ECFEF01200A2
:10FCD200000E2D062E5AFDE21200D880D894D89834
:10FCE2001B50195E1A50185A12001CAE87EFFEF014
:10FCF2001DC019F01CC018F0000E1A6E010E1B6E0A
:10FD02006EECFEF0181C1C6E191C1D6E1200000E0B
:10FD12001E6E080E246E2406D8902136203621C08D
:10FD220019F020C018F023C01BF022C01AF06EECAC
:10FD3200FEF018BED9EFFEF0070E2460BDEFFEF014
:10FD4200060E2460C0EFFEF0050E2460C3EFFEF045
:10FD5200040E2460C6EFFEF0030E2460C9EFFEF02D
:10FD6200020E2460CCEFFEF0010E2460CFEFFEF015
:10FD7200000E2460D2EFFEF01E8ED5EFFEF01E8C38
:10FD8200D5EFFEF01E8AD5EFFEF01E88D5EFFEF00D
:10FD92001E86D5EFFEF01E84D5EFFEF01E82D5EF53
:10FDA200FEF01E80D5EFFEF018C020F019C021F041
:10FDB200000E24628CEFFEF01E501F0212009A6A9F
:10FDC200916A220E036E220E14ECFEF0220E27EC34
:10FDD200FEF0080E046E066EB00E056E076E060E7D
:10FDE200146E000E156E12009180F8ECFDF029C021
:10FDF20018F02AC019F004C01AF005C01BF06EEC0E
:10FE0200FEF018C008F019C009F008C00CF009C0D3
:10FE12000DF02BC018F02CC019F006C01AF007C064
:10FE22001BF06EECFEF018C00AF019C00BF00AC00D
:10FE32000EF00BC00FF00CC01CF00DC01DF076ECE4
:10FE4200FEF01CC010F01DC011F00EC01CF00FC05F
:10FE52001DF076ECFEF01CC012F01DC013F010C0B5
:10FE620020F011C021F014C022F015C023F0140EAE
:10FE72001F6E88ECFEF00CAE43EFFFF00350F4244B
:10FE820045EFFFF0F450035C176E12C020F013C070
:10FE920021F014C022F015C023F0140E1F6E88EC5E
:10FEA200FEF00EAE59EFFFF00350F4245BEFFFF0CB
:10FEB200F450035C166E3AECFEF091901200012EA3
:10FEC200FED71200FF0E016E60ECFFF0022EFAD791
:10FED20012008A6AC00E936E280EEAECFFF0300E12
:10FEE200B9ECFFF00A0EF1ECFFF0280EB9ECFFF0CE
:10FEF2000A0EF1ECFFF0280EB9ECFFF00A0EF1EC5D
:10FF0200FFF00F0EB9ECFFF00A0EF1ECFFF0010E5C
:10FF1200B9ECFFF0020EEAECFFF0060EB9ECFFF0CE
:10FF22000A0EF1ECFFF012003C6E3C389AECFFF046
:10FF32003C500F0B356E0A0E3560070F260F352425
:10FF4200C7ECFFF01200A80EB9ECFFF00A0EF1ECBC
:10FF5200FFF01200010EB9ECFFF0020EEAECFFF026
:10FF62001200366EDE50C7ECFFF0362EFBD71200C1
:10FF7200356E35380F0B8A6E8A98D8ECFFF0355003
:10FF82000F0B8A6E8A98D8ECFFF01200356E353866
:10FF92000F0B8A6E8A88D8ECFFF035500F0B8A6EF1
:10FFA2008A88D8ECFFF00A0EF1ECFFF01200000094
:10FFB20000000000000000000000000000008A8A2B
:10FFC20000000000000000000000000000008A9A0B
:10FFD2001200346EFA0EF1ECFFF0342EFBD7120051
:10FFE200326E323A0F0E3214336EF00E3216FBECD2
:0EFFF200FFF01200000E3206335AFDE212003C
:020000040030CA
:0700000015137F7CF98B91C1
:06000800FFC0FFE0FF4015
:00000001FF
