:0400000006EF00F017
:10000800DBEFFEF0E0ECFCF02DECFEF003ECFDF095
:1000180068ECFDF0A7ECFDF026EF00F0100E446E42
:100028002DEC00F06EECFEF02C0E456E58ECFEF058
:10003800A90E466E58ECFEF04650452458ECFEF0EA
:1000480012EF00F0C3ECFEF028EF00F0432EFED7CD
:100058001200FF0E436E2AEC00F0442EFAD712006D
:020000040001F9
:10F9C000AB8EAC98AC94AC8A6596670EAF6E948C97
:10F9D0001200536EDE50F0ECFCF0532EFBD71200F9
:10F9E0009EA8FED7AD6E1200556E5538F9ECFCF0AE
:10F9F00055500F0B546E0A0E5460070F260F5424F7
:10FA0000F0ECFCF01200978A97849698969A120070
:10FA10008D888D9A0F0124850001290EC26E000E7B
:10FA2000C16EF60EC06E12008D988D8A0F01258F63
:10FA300000011D0EC26E000EC16EF60EC06E1200E9
:10FA4000C43AF00EC416C3380F0EC314C4241200F7
:10FA5000C282C2B2FED712003C2EFED70F0E3C6E01
:10FA600012003A6E3A3A0F0E3A143B6EF00E3A1606
:10FA70003BECFDF01200000E3A063B5AFDE212008C
:10FA80003D6E7D0E31ECFDF03D2EFBD7120008ECF3
:10FA9000FDF0010E40ECFDF028ECFDF0120014EC3E
:10FAA000FDF0010E40ECFDF028ECFDF012004FECF3
:10FAB000FDF0C3CF41F0C4CF40F04050415047EC7F
:10FAC000FDF0C3CF3FF0C4CF3EF03E503F50120098
:10FAD0009590959212004C6E140E4D6E4C508C8089
:10FAE00091ECFDF08C904C50FA0891ECFDF0FA0E80
:10FAF00091ECFDF04D2E6EEFFDF012004C6E140EE9
:10FB00004D6E4C508C8291ECFDF08C924C50FA086A
:10FB100091ECFDF0FA0E91ECFDF04D2E81EFFDF031
:10FB200012004B6E0A0E98ECFDF04B2EFBD7120024
:10FB3000496E493A0F0E49144A6EF00E4916A2EC6E
:10FB4000FDF01200000E49064A5AFDE21200000EB6
:10FB5000266E296E276E2A6E1200D8902632273222
:10FB6000286E2726000E2622D8901200D89029321F
:10FB70002A322B6E2A26000E2922D8901200D88015
:10FB8000D894D8982F502D5E2E50D8A02E3E2C5EA3
:10FB90001200329030AECEEFFDF03280D89032B00D
:10FBA000D8803032313232901200000E336E080E9F
:10FBB000396E3906D8903632353236C02DF035C020
:10FBC0002CF038C02FF037C02EF0BFECFDF02CBE6B
:10FBD00026EFFEF0070E39600AEFFEF0060E3960E0
:10FBE0000DEFFEF0050E396010EFFEF0040E3960E7
:10FBF00013EFFEF0030E396016EFFEF0020E3960CF
:10FC000019EFFEF0010E39601CEFFEF0000E3960B6
:10FC10001FEFFEF0338E22EFFEF0338C22EFFEF06A
:10FC2000338A22EFFEF0338822EFFEF0338622EF94
:10FC3000FEF0338422EFFEF0338222EFFEF03380B9
:10FC400022EFFEF02CC035F02DC036F0000E3962E8
:10FC5000D9EFFDF03350340212008A6AC00E936E61
:10FC6000280EADECFEF0300E7CECFEF00A0EB4EC8B
:10FC7000FEF0280E7CECFEF00A0EB4ECFEF0280E2E
:10FC80007CECFEF00A0EB4ECFEF00F0E7CECFEF005
:10FC90000A0EB4ECFEF0010E7CECFEF0020EADECB0
:10FCA000FEF0060E7CECFEF00A0EB4ECFEF0120044
:10FCB000556E55385DECFEF055500F0B516E0A0E27
:10FCC0005160070F260F51248AECFEF01200A80E97
:10FCD0007CECFEF00A0EB4ECFEF01200010E7CEC9F
:10FCE000FEF0020EADECFEF01200526EDE508AEC19
:10FCF000FEF0522EFBD71200516E51380F0B8A6E58
:10FD00008A989BECFEF051500F0B8A6E8A989BEC00
:10FD1000FEF01200516E51380F0B8A6E8A889BECF0
:10FD2000FEF051500F0B8A6E8A889BECFEF00A0E93
:10FD3000B4ECFEF012000000000000000000000023
:10FD40000000000000008A8A00000000000000009F
:10FD50000000000000008A9A1200506EFA0EB4EC07
:10FD6000FEF0502EFBD712004E6E4E3A0F0E4E1480
:10FD70004F6EF00E4E16BEECFEF01200000E4E0658
:10FD80004F5AFDE212009A6A916A810ED56E220ED8
:10FD9000036E220E6BECFDF0220E7EECFDF0070EE2
:10FDA000046E066EB00E056E076E000E246E256E94
:10FDB000F28AF28E120008C00CF009C00DF00AC0E1
:10FDC0000EF00BC00FF0100E026EF9ECFFF06EECAF
:10FDD000FEF0F2A41100912A57ECFDF03EC02CF089
:10FDE0003FC02DF004C02EF005C02FF0BFECFDF099
:10FDF0002CC008F02DC009F008C01CF009C01DF08F
:10FE000040C02CF041C02DF006C02EF007C02FF0EE
:10FE1000BFECFDF02CC00AF02DC00BF00AC01EF0A4
:10FE20000BC01FF01CC030F01DC031F0C9ECFDF05C
:10FE300030C01CF031C01DF01EC030F01FC031F0CA
:10FE4000C9ECFDF030C01EF031C01FF01C5058EC62
:10FE5000FEF01D5058ECFEF01E5058ECFEF01F5006
:10FE600058ECFEF01DC015F01CC014F01FC017F0B8
:10FE70001EC016F008C02CF009C02DF00CC02EF0EA
:10FE80000DC02FF0BFECFDF02CC010F02DC011F014
:10FE900010C020F011C021F00AC02CF00BC02DF0D2
:10FEA0000EC02EF00FC02FF0BFECFDF02CC012F0F2
:10FEB0002DC013F012C022F013C023F020C030F088
:10FEC00021C031F0C9ECFDF030C020F031C021F08C
:10FED00022C030F023C031F0C9ECFDF030C022F078
:10FEE00031C023F0D8902150152620501426D890E8
:10FEF0002350172622501626205058ECFEF0215091
:10FF000058ECFEF0225058ECFEF0235058ECFEF076
:10FF100067ECFEF0145058ECFEF0155058ECFEF073
:10FF2000165058ECFEF0175058ECFEF014AEA7EF48
:10FF3000FFF015C02DF014C02CF0000E2E6E010E37
:10FF40002F6EBFECFDF02C1C186E2D1C196E14BE0C
:10FF5000AEEFFFF014C018F015C019F016AEBFEFE9
:10FF6000FFF017C02DF016C02CF0000E2E6E010E03
:10FF70002F6EBFECFDF02C1C1A6E2D1C1B6E16BED6
:10FF8000C6EFFFF016C01AF017C01BF018C035F00E
:10FF900019C036F024C037F025C038F00A0E346E90
:10FFA000D5ECFDF014AED9EFFFF00350F424DBEFF5
:10FFB000FFF0F450035C7EECFDF01AC035F01BC07E
:10FFC00036F024C037F025C038F00A0E346ED5EC78
:10FFD000FDF016BEF0EFFFF00350F424F2EFFFF057
:10FFE000F450035C6BECFDF0F2941100012EFED78F
:10FFF0001200FF0E016EF6ECFFF0022EFAD712008F
:020000040030CA
:0700000015137F00B98B917D
:06000800FFC0FFE0FF4015
:00000001FF
