:0400000006EF00F017
:100008004BEFFFF02DECFDF0A0ECFEF050ECFDF016
:10001800BDECFDF01CECFEF0BB0E41ECFDF025EF55
:1000280000F0A4ECFDF0220EC0ECFDF0220ED3ECA3
:10003800FDF0AA0E41ECFDF0AA0E41ECFDF015EF23
:1000480000F036ECFFF04BECFFF027EF00F0452E08
:10005800FED71200FF0E456E2BEC00F0462EFAD7A5
:02006800120084
:020000040001F9
:10FA5A00AB8EAC98AC94AC8A6596670EAF6E948CFC
:10FA6A001200556EDE503DECFDF0552EFBD712000C
:10FA7A009EA8FED7AD6E1200576E573846ECFDF0C1
:10FA8A0057500F0B566E0A0E5660070F260F562454
:10FA9A003DECFDF01200978A97849698969A120088
:10FAAA008D888D9A0F0124850001290EC26E000EE1
:10FABA00C16EF60EC06E12008D988D8A0F01258FC9
:10FACA0000011D0EC26E000EC16EF60EC06E12004F
:10FADA00C43AF00EC416C3380F0EC314C42412005D
:10FAEA00C282C2B2FED712003E2EFED70F0E3E6E63
:10FAFA0012003C6E3C3A0F0E3C143D6EF00E3C1662
:10FB0A0088ECFDF01200000E3C063D5AFDE21200A0
:10FB1A003F6E7D0E7EECFDF03F2EFBD7120055ECBA
:10FB2A00FDF0010E8DECFDF075ECFDF0120061ECBC
:10FB3A00FDF0010E8DECFDF075ECFDF012009CEC71
:10FB4A00FDF0C3CF43F0C4CF42F0425041ECFDF088
:10FB5A00435041ECFDF094ECFDF0C3CF41F0C4CF2B
:10FB6A0040F0405041ECFDF0415041ECFDF01200F4
:10FB7A009590959212004E6E140E4F6E4E508C80D8
:10FB8A0006ECFEF08C904E50FA0806ECFEF0FA0EE7
:10FB9A0006ECFEF04F2EC3EFFDF012004E6E140E6F
:10FBAA004F6E4E508C8206ECFEF08C924E50FA0844
:10FBBA0006ECFEF0FA0E06ECFEF04F2ED6EFFDF044
:10FBCA0012004E6E140E4F6E27508C8206ECFEF019
:10FBDA008C924E50FA0806ECFEF0FA0E06ECFEF095
:10FBEA004F2E26508C8006ECFEF08C904E50FA0870
:10FBFA0006ECFEF0FA0E06ECFEF04F2EE9EFFDF0F1
:10FC0A0012004D6E0A0E0DECFEF04D2EFBD71200BF
:10FC1A004B6E4B3A0F0E4B144C6EF00E4B1617EC04
:10FC2A00FEF01200000E4B064C5AFDE21200000EC6
:10FC3A00286E2B6E296E2C6E1200D890283229322B
:10FC4A002A6E2926000E2822D8901200D8902B322C
:10FC5A002C322D6E2C26000E2B22D8901200D88022
:10FC6A00D894D89831502F5E30502E5A12003490C2
:10FC7A0032AE41EFFEF03480D89034B0D8803232C0
:10FC8A00333234901200000E356E080E3B6E3B067E
:10FC9A00D8903836373638C02FF037C02EF03AC0F1
:10FCAA0031F039C030F034ECFEF02EBE99EFFEF0A0
:10FCBA00070E3B607DEFFEF0060E3B6080EFFEF024
:10FCCA00050E3B6083EFFEF0040E3B6086EFFEF00C
:10FCDA00030E3B6089EFFEF0020E3B608CEFFEF0F4
:10FCEA00010E3B608FEFFEF0000E3B6092EFFEF0DC
:10FCFA00358E95EFFEF0358C95EFFEF0358A95EF4F
:10FD0A00FEF0358895EFFEF0358695EFFEF03584E6
:10FD1A0095EFFEF0358295EFFEF0358095EFFEF017
:10FD2A002EC037F02FC038F0000E3B624CEFFEF0C9
:10FD3A003550360212008A6AC00E936E280E20ECE5
:10FD4A00FFF0300EEFECFEF00A0E27ECFFF0280E63
:10FD5A00EFECFEF00A0E27ECFFF0280EEFECFEF0B7
:10FD6A000A0E27ECFFF00F0EEFECFEF00A0E27EC5E
:10FD7A00FFF0010EEFECFEF0020E20ECFFF0060E93
:10FD8A00EFECFEF00A0E27ECFFF01200576E573820
:10FD9A00D0ECFEF057500F0B536E0A0E5360070F4C
:10FDAA00260F5324FDECFEF01200A80EEFECFEF035
:10FDBA000A0E27ECFFF01200010EEFECFEF0020E25
:10FDCA0020ECFFF01200546EDE50FDECFEF0542ED3
:10FDDA00FBD71200536E53380F0B8A6E8A980EECBB
:10FDEA00FFF053500F0B8A6E8A980EECFFF0120048
:10FDFA00536E53380F0B8A6E8A880EECFFF05350FD
:10FE0A000F0B8A6E8A880EECFFF00A0E27ECFFF0C1
:10FE1A0012000000000000000000000000000000C6
:10FE2A0000008A8A000000000000000000000000B4
:10FE3A0000008A9A1200526EFA0E27ECFFF0522E38
:10FE4A00FBD71200506E503A0F0E5014516EF00E3E
:10FE5A00501631ECFFF01200000E5006515AFDE226
:10FE6A0012009A6A916A220E036E220EC0ECFDF00D
:10FE7A00220ED3ECFDF0080E046E066EB00E056E6F
:10FE8A00076E060E246E000E256E1200918008C0C1
:10FE9A000CF009C00DF00AC00EF00BC00FF0A4EC74
:10FEAA00FDF040C02EF041C02FF004C030F005C074
:10FEBA0031F034ECFEF02EC008F02FC009F008C073
:10FECA001CF009C01DF042C02EF043C02FF006C03E
:10FEDA0030F007C031F034ECFEF02EC00AF02FC02B
:10FEEA000BF00AC01EF00BC01FF01DC015F01CC09D
:10FEFA0014F01FC017F01EC016F0DAECFEF014AEB4
:10FF0A0095EFFFF015C02FF014C02EF0000E306EE2
:10FF1A00010E316E34ECFEF02E1C186E2F1C196E79
:10FF2A0014BE9CEFFFF014C018F015C019F016AEFD
:10FF3A00ADEFFFF017C02FF016C02EF0000E306E96
:10FF4A00010E316E34ECFEF02E1C1A6E2F1C1B6E45
:10FF5A0016BEB4EFFFF016C01AF017C01BF091904E
:10FF6A0018C037F019C038F024C039F025C03AF06B
:10FF7A00140E366E48ECFEF014AEC8EFFFF00350D4
:10FF8A00F424CAEFFFF0F450035C276E1AC037F06E
:10FF9A001BC038F024C039F025C03AF0140E366E72
:10FFAA0048ECFEF016AEDEEFFFF00350F424E0EF6B
:10FFBA00FFF0F450035C266EE6ECFDF0F9ECFFF07E
:10FFCA00F9ECFFF0F9ECFFF0F9ECFFF0F9ECFFF0D7
:10FFDA00F9ECFFF0F9ECFFF0F9ECFFF0F9ECFFF0C7
:10FFEA001200012EFED71200FF0E016EF6ECFFF092
:06FFFA00022EFAD71200EE
:020000040030CA
:0700000015137F00B98B917D
:06000800FFC0FFE0FF4015
:00000001FF
