:1000000002EF00F07F9C7F8EE9ECFEF071ECFFF0D8
:100010001AECFFF0FDECFEF00EEF00F0470EFFECE7
:10002000FEF0600E0E6E1CEC00F0ABECFFF00EEF7D
:1000300000F00D2EFED71200FF0E0D6E19EC00F031
:060040000E2EFAD712009B
:020000040001F9
:10FDD200AB8EAC98AC94AC8A6596670EAF6E948C81
:10FDE20012000F6EDE50F9ECFEF00F2EFBD7120060
:10FDF2009EA8FED7AD6E1200959012008C8004EC86
:10FE0200FFF08C9012000B6E050E0BECFFF00B2E28
:10FE1200FBD71200096E093A0F0E09140A6EF00E92
:10FE2200091615ECFFF01200000E09060A5AFDE24F
:10FE32001200978A97849698969A12008D888D9AC6
:10FE42000F0124850001290EC26E000EC16EF60E4E
:10FE5200C06E12008D988D8A0F01258F00011D0E34
:10FE6200C26E000EC16EF60EC06E1200C282C2B227
:10FE7200FED71200072EFED70F0E076E1200056E78
:10FE8200053A0F0E0514066EF00E05164AECFFF049
:10FE92001200000E0506065AFDE21200086EFA0E66
:10FEA20040ECFFF0082EFBD712002BECFFF0010E06
:10FEB2004FECFFF037ECFFF0C4509CECFFF0C35066
:10FEC2009CECFFF01FECFFF0010E4FECFFF037EC63
:10FED200FFF0C4509CECFFF0C3509CECFFF012000A
:10FEE2008A6AC00E936E280EEAECFFF0300EB9EC6F
:10FEF200FFF00A0EF1ECFFF0280EB9ECFFF00A0E4B
:10FF0200F1ECFFF0280EB9ECFFF00A0EF1ECFFF075
:10FF12000F0EB9ECFFF00A0EF1ECFFF0010EB9EC96
:10FF2200FFF0020EEAECFFF0060EB9ECFFF00A0E4B
:10FF3200F1ECFFF01200106E1038A1ECFFF010503F
:10FF42000F0B036E0A0E0360070F260F0324C7EC84
:10FF5200FFF01200010EB9ECFFF0020EEAECFFF026
:10FF62001200046EDE50C7ECFFF0042EFBD7120025
:10FF7200036E03380F0B8A6E8A98D8ECFFF0035099
:10FF82000F0B8A6E8A98D8ECFFF01200036E0338CA
:10FF92000F0B8A6E8A88D8ECFFF003500F0B8A6E23
:10FFA2008A88D8ECFFF00A0EF1ECFFF01200000094
:10FFB20000000000000000000000000000008A8A2B
:10FFC20000000000000000000000000000008A9A0B
:10FFD2001200026EFA0EF1ECFFF0022EFBD71200B5
:10FFE200006E003A0F0E0014016EF00E0016FBECCC
:0EFFF200FFF01200000E0006015AFDE21200A0
:020000040030CA
:0700000015137F00B98B917D
:06000800FFC0FFE0FF4015
:00000001FF
