:1000000002EF00F012ECFFF071ECFFF0F1ECFEF00B
:10001000D4ECFEF0C3ECFEF00EEF00F0B6ECFEF018
:1000200050ECFFF0600E126E1DEC00F0ABECFFF038
:1000300010EF00F0112EFED71200FF0E116E1AEC19
:0800400000F0122EFAD71200A5
:020000040001F9
:10FD6C00810ECD6E9D80F28E12009EA0110000526D
:10FD7C0026ECFFF09E9011001200000E056E076E2F
:10FD8C0012000532066E06320630052605501200AA
:10FD9C0007320732086E08300726120095901200C1
:10FDAC008C80DBECFEF08C9012000F6E050EE2ECFA
:10FDBC00FEF00F2EFBD712000D6E0D3A0F0E0D1428
:10FDCC000E6EF00E0D16ECECFEF01200000E0D0691
:10FDDC000E5AFDE21200978A97849698969A120012
:10FDEC008D888D9A0F0124850001290EC26E000E9C
:10FDFC00C16EF60EC06E12008D988D8A0F01258F84
:10FE0C0000011D0EC26E000EC16EF60EC06E120009
:10FE1C00C282C2B2FED71200AB8EAC98AC94AC8A44
:10FE2C006596670EAF6E948C1200136EDE5022EC4A
:10FE3C00FFF0132EFBD712009EA8FED7AD6E12005A
:10FE4C00156E15382BECFFF015500F0B146E0A0EB7
:10FE5C001460070F260F142422ECFFF012000B2E57
:10FE6C00FED70F0E0B6E1200096E093A0F0E091415
:10FE7C000A6EF00E091644ECFFF01200000E090693
:10FE8C000A5AFDE212000C6E7D0E3AECFFF00C2EBD
:10FE9C00FBD7120002ECFFF0010E49ECFFF00EEC68
:10FEAC00FFF0C43AF00EC416C3380F0EC314C424AA
:10FEBC0026ECFFF0F6ECFEF0010E49ECFFF00EEC38
:10FECC00FFF0C43AF00EC416C3380F0EC314C4248A
:10FEDC0026ECFFF012008A6AC00E936E280EEAEC34
:10FEEC00FFF0300EB9ECFFF00A0EF1ECFFF0280E2B
:10FEFC00B9ECFFF00A0EF1ECFFF0280EB9ECFFF0B4
:10FF0C000A0EF1ECFFF00F0EB9ECFFF00A0EF1EC5B
:10FF1C00FFF0010EB9ECFFF0020EEAECFFF0060E5A
:10FF2C00B9ECFFF00A0EF1ECFFF01200156E15386B
:10FF3C00A1ECFFF015500F0B036E0A0E0360070FB8
:10FF4C00260F0324C7ECFFF01200010EB9ECFFF0F2
:10FF5C00020EEAECFFF01200046EDE50C7ECFFF06C
:10FF6C00042EFBD71200036E03380F0B8A6E8A988F
:10FF7C00D8ECFFF003500F0B8A6E8A98D8ECFFF088
:10FF8C001200036E03380F0B8A6E8A88D8ECFFF0D0
:10FF9C0003500F0B8A6E8A88D8ECFFF00A0EF1EC36
:10FFAC00FFF0120000000000000000000000000044
:10FFBC00000000008A8A0000000000000000000021
:10FFCC00000000008A9A1200026EFA0EF1ECFFF0AB
:10FFDC00022EFBD71200006E003A0F0E0014016EB9
:10FFEC00F00E0016FBECFFF01200000E0006015A9A
:04FFFC00FDE2120010
:020000040030CA
:0700000015137F00B98B917D
:06000800FFC0FFE0FF4015
:00000001FF
