:0400000006EF00F017
:100008003CEFFFF09FECFDF097ECFEF0C2ECFDF04A
:1000180058ECFEF0EBECFDF012EF00F02DECFFF0E9
:0400280014EF00F0E1
:020000040001F9
:10FB3E00AB8EAC98AC94AC8A6596670EAF6E948C17
:10FB4E0012003D6EDE50AFECFDF03D2EFBD71200E5
:10FB5E009EA8FED7AD6E12003F6E3F38B8ECFDF09A
:10FB6E003F500F0B3E6E0A0E3E60070F260F3E24CF
:10FB7E00AFECFDF01200978A97849698969A120031
:10FB8E008D888D9A0F0124850001290EC26E000EFC
:10FB9E00C16EF60EC06E12008D988D8A0F01258FE4
:10FBAE0000011D0EC26E000EC16EF60EC06E12006A
:10FBBE00C43AF00EC416C3380F0EC314C424120078
:10FBCE00C282C2B2FED71200000E1E6E216E1F6ED2
:10FBDE00226E1200D8901E321F32206E1F26000E8B
:10FBEE001E22D8901200D89021322232236E222665
:10FBFE00000E2122D8901200D880D894D898275081
:10FC0E00255E2650D8A0263E245E12002A9028AEED
:10FC1E0013EFFEF0289E2A80D89028322932D890F1
:10FC2E00283229322AB0288E2A902D2EFED70F0E7A
:10FC3E002D6E12002B6E2B3A0F0E2B142C6EF00E17
:10FC4E002B162BECFEF01200000E2B062C5AFDE2AA
:10FC5E0012002E6E7D0E21ECFEF02E2EFBD7120022
:10FC6E00C7ECFDF0010E30ECFEF0E7ECFDF01200FB
:10FC7E00D3ECFDF0010E30ECFEF0E7ECFDF01200DF
:10FC8E003FECFEF0C3CF32F0C4CF31F031503250E2
:10FC9E0037ECFEF0C3CF30F0C4CF2FF02F503050E2
:10FCAE001200959095921200366E140E376E3650E5
:10FCBE008C8081ECFEF08C903650FA0881ECFEF0D0
:10FCCE00FA0E81ECFEF0372E5EEFFEF01200366E6D
:10FCDE00140E376E36508C8281ECFEF08C923650BC
:10FCEE00FA0881ECFEF0FA0E81ECFEF0372E71EF81
:10FCFE00FEF01200356E0A0E88ECFEF0352EFBD7A4
:10FD0E001200336E333A0F0E3314346EF00E331678
:10FD1E0092ECFEF01200000E3306345AFDE2120091
:10FD2E008A6AC00E936E280E17ECFFF0300EE6ECCA
:10FD3E00FEF00A0E1EECFFF0280EE6ECFEF00A0EA8
:10FD4E001EECFFF0280EE6ECFEF00A0E1EECFFF0A5
:10FD5E000F0EE6ECFEF00A0E1EECFFF0010EE6ECC6
:10FD6E00FEF0020E17ECFFF0060EE6ECFEF00A0EA9
:10FD7E001EECFFF012003F6E3F38C7ECFEF03F5016
:10FD8E000F0B3B6E0A0E3B60070F260F3B24F4EC65
:10FD9E00FEF01200A80EE6ECFEF00A0E1EECFFF0CE
:10FDAE001200010EE6ECFEF0020E17ECFFF0120050
:10FDBE003C6EDE50F4ECFEF03C2EFBD712003B6E98
:10FDCE003B380F0B8A6E8A9805ECFFF03B500F0BF9
:10FDDE008A6E8A9805ECFFF012003B6E3B380F0BD3
:10FDEE008A6E8A8805ECFFF03B500F0B8A6E8A886C
:10FDFE0005ECFFF00A0E1EECFFF0120000000000F2
:10FE0E000000000000000000000000008A8A0000D0
:10FE1E000000000000000000000000008A9A12009E
:10FE2E003A6EFA0E1EECFFF03A2EFBD71200386E29
:10FE3E00383A0F0E3814396EF00E381628ECFFF0E3
:10FE4E001200000E3806395AFDE212009A6A916AC3
:10FE5E00870ED56E220E036E070E046E066EB00E62
:10FE6E00056E076EF28AF28E120008C00CF009C001
:10FE7E000DF00AC00EF00BC00FF0100E026EF9EC72
:10FE8E00FFF0D8ECFEF0F2A41100912A47ECFEF040
:10FE9E002FC024F030C025F004C026F005C027F096
:10FEAE0003ECFEF024C008F025C009F008C016F0DF
:10FEBE0009C017F031C024F032C025F006C026F07C
:10FECE0007C027F003ECFEF024C00AF025C00BF0AB
:10FEDE000AC018F00BC019F00850C2ECFEF0095021
:10FEEE00C2ECFEF00A50C2ECFEF00B50C2ECFEF07B
:10FEFE0016C028F017C029F00DECFEF028C016F041
:10FF0E0029C017F018C028F019C029F00DECFEF02A
:10FF1E0028C018F029C019F01650C2ECFEF0175088
:10FF2E00C2ECFEF01850C2ECFEF01950C2ECFEF01E
:10FF3E00D1ECFEF008C024F009C025F00CC026F06C
:10FF4E000DC027F003ECFEF024C010F025C011F018
:10FF5E0010C01AF011C01BF00AC024F00BC025F01F
:10FF6E000EC026F00FC027F003ECFEF024C012F0F6
:10FF7E0025C013F012C01CF013C01DF01050C2ECBF
:10FF8E00FEF01150C2ECFEF01250C2ECFEF0135017
:10FF9E00C2ECFEF01AC028F01BC029F00DECFEF0EA
:10FFAE0028C01AF029C01BF01CC028F01DC029F073
:10FFBE000DECFEF028C01CF029C01DF01A50C2EC4A
:10FFCE00FEF01B50C2ECFEF01C50C2ECFEF01D50B9
:10FFDE00C2ECFEF003506EECFEF0F2941100012E16
:10FFEE00FED71200FF0E016EF6ECFFF0022EFAD7CE
:02FFFE001200EF
:020000040030CA
:0700000015137F00B98B917D
:06000800FFC0FFE0FF4015
:00000001FF
